{
  "_format": "hh-sol-artifact-1",
  "contractName": "Escrow",
  "sourceName": "contracts/Escrow.sol",
  "abi": [
    {
      "inputs": [
        {
          "internalType": "address",
          "name": "ERC20Address",
          "type": "address"
        }
      ],
      "stateMutability": "nonpayable",
      "type": "constructor"
    },
    {
      "inputs": [],
      "name": "_token",
      "outputs": [
        {
          "internalType": "contract IERC20",
          "name": "",
          "type": "address"
        }
      ],
      "stateMutability": "view",
      "type": "function"
    },
    {
      "inputs": [
        {
          "internalType": "bytes32",
          "name": "txn_hash",
          "type": "bytes32"
        },
        {
          "internalType": "uint256",
          "name": "amount",
          "type": "uint256"
        }
      ],
      "name": "depositEscrow",
      "outputs": [],
      "stateMutability": "nonpayable",
      "type": "function"
    },
    {
      "inputs": [
        {
          "internalType": "uint256",
          "name": "amount",
          "type": "uint256"
        }
      ],
      "name": "getHash",
      "outputs": [
        {
          "internalType": "bytes32",
          "name": "result",
          "type": "bytes32"
        }
      ],
      "stateMutability": "view",
      "type": "function"
    },
    {
      "inputs": [
        {
          "internalType": "bytes32",
          "name": "txn_hash",
          "type": "bytes32"
        }
      ],
      "name": "withdrawalEscrow",
      "outputs": [],
      "stateMutability": "nonpayable",
      "type": "function"
    }
  ],
  "bytecode": "0x608060405234801561001057600080fd5b50604051610e5a380380610e5a833981810160405281019061003291906100db565b806000806101000a81548173ffffffffffffffffffffffffffffffffffffffff021916908373ffffffffffffffffffffffffffffffffffffffff16021790555050610108565b600080fd5b600073ffffffffffffffffffffffffffffffffffffffff82169050919050565b60006100a88261007d565b9050919050565b6100b88161009d565b81146100c357600080fd5b50565b6000815190506100d5816100af565b92915050565b6000602082840312156100f1576100f0610078565b5b60006100ff848285016100c6565b91505092915050565b610d43806101176000396000f3fe608060405234801561001057600080fd5b506004361061004c5760003560e01c806321c56f13146100515780636b2fafa91461006d578063765d49ac1461009d578063ecd0c0c3146100b9575b600080fd5b61006b600480360381019061006691906105d0565b6100d7565b005b61008760048036038101906100829190610610565b610313565b604051610094919061064c565b60405180910390f35b6100b760048036038101906100b29190610667565b610349565b005b6100c161053b565b6040516100ce9190610713565b60405180910390f35b600060f81b826000602081106100f0576100ef61072e565b5b1a60f81b7effffffffffffffffffffffffffffffffffffffffffffffffffffffffffffff19161415610157576040517f08c379a000000000000000000000000000000000000000000000000000000000815260040161014e906107ba565b60405180910390fd5b600081141561019b576040517f08c379a00000000000000000000000000000000000000000000000000000000081526004016101929061084c565b60405180910390fd5b60006002600084815260200190815260200160002054146101f1576040517f08c379a00000000000000000000000000000000000000000000000000000000081526004016101e8906108de565b60405180910390fd5b60008054906101000a900473ffffffffffffffffffffffffffffffffffffffff1673ffffffffffffffffffffffffffffffffffffffff166323b872dd3330846040518463ffffffff1660e01b815260040161024e9392919061092e565b602060405180830381600087803b15801561026857600080fd5b505af115801561027c573d6000803e3d6000fd5b505050506040513d601f19601f820116820180604052508101906102a0919061099d565b6102df576040517f08c379a00000000000000000000000000000000000000000000000000000000081526004016102d690610a16565b60405180910390fd5b8060026000848152602001908152602001600020819055506001600081548092919061030a90610a65565b91905055505050565b6000336001548360405160200161032c93929190610b17565b604051602081830303815290604052805190602001209050919050565b600060f81b816000602081106103625761036161072e565b5b1a60f81b7effffffffffffffffffffffffffffffffffffffffffffffffffffffffffffff191614156103c9576040517f08c379a00000000000000000000000000000000000000000000000000000000081526004016103c090610bc6565b60405180910390fd5b600060026000838152602001908152602001600020541415610420576040517f08c379a000000000000000000000000000000000000000000000000000000000815260040161041790610c58565b60405180910390fd5b60008054906101000a900473ffffffffffffffffffffffffffffffffffffffff1673ffffffffffffffffffffffffffffffffffffffff1663a9059cbb3360026000858152602001908152602001600020546040518363ffffffff1660e01b815260040161048e929190610c78565b602060405180830381600087803b1580156104a857600080fd5b505af11580156104bc573d6000803e3d6000fd5b505050506040513d601f19601f820116820180604052508101906104e0919061099d565b61051f576040517f08c379a000000000000000000000000000000000000000000000000000000000815260040161051690610ced565b60405180910390fd5b6000600260008381526020019081526020016000208190555050565b60008054906101000a900473ffffffffffffffffffffffffffffffffffffffff1681565b600080fd5b6000819050919050565b61057781610564565b811461058257600080fd5b50565b6000813590506105948161056e565b92915050565b6000819050919050565b6105ad8161059a565b81146105b857600080fd5b50565b6000813590506105ca816105a4565b92915050565b600080604083850312156105e7576105e661055f565b5b60006105f585828601610585565b9250506020610606858286016105bb565b9150509250929050565b6000602082840312156106265761062561055f565b5b6000610634848285016105bb565b91505092915050565b61064681610564565b82525050565b6000602082019050610661600083018461063d565b92915050565b60006020828403121561067d5761067c61055f565b5b600061068b84828501610585565b91505092915050565b600073ffffffffffffffffffffffffffffffffffffffff82169050919050565b6000819050919050565b60006106d96106d46106cf84610694565b6106b4565b610694565b9050919050565b60006106eb826106be565b9050919050565b60006106fd826106e0565b9050919050565b61070d816106f2565b82525050565b60006020820190506107286000830184610704565b92915050565b7f4e487b7100000000000000000000000000000000000000000000000000000000600052603260045260246000fd5b600082825260208201905092915050565b7f5472616e73616374696f6e206861732063616e6e6f7420626520656d70747921600082015250565b60006107a460208361075d565b91506107af8261076e565b602082019050919050565b600060208201905081810360008301526107d381610797565b9050919050565b7f457363726f7720616d6f756e742063616e6e6f7420626520657175616c20746f60008201527f20302e0000000000000000000000000000000000000000000000000000000000602082015250565b600061083660238361075d565b9150610841826107da565b604082019050919050565b6000602082019050818103600083015261086581610829565b9050919050565b7f556e69717565206861736820636f6e666c6963742c206861736820697320616c60008201527f726561647920696e207573652e00000000000000000000000000000000000000602082015250565b60006108c8602d8361075d565b91506108d38261086c565b604082019050919050565b600060208201905081810360008301526108f7816108bb565b9050919050565b600061090982610694565b9050919050565b610919816108fe565b82525050565b6109288161059a565b82525050565b60006060820190506109436000830186610910565b6109506020830185610910565b61095d604083018461091f565b949350505050565b60008115159050919050565b61097a81610965565b811461098557600080fd5b50565b60008151905061099781610971565b92915050565b6000602082840312156109b3576109b261055f565b5b60006109c184828501610988565b91505092915050565b7f5472616e7366657220746f20657363726f77206661696c656421000000000000600082015250565b6000610a00601a8361075d565b9150610a0b826109ca565b602082019050919050565b60006020820190508181036000830152610a2f816109f3565b9050919050565b7f4e487b7100000000000000000000000000000000000000000000000000000000600052601160045260246000fd5b6000610a708261059a565b91507fffffffffffffffffffffffffffffffffffffffffffffffffffffffffffffffff821415610aa357610aa2610a36565b5b600182019050919050565b60008160601b9050919050565b6000610ac682610aae565b9050919050565b6000610ad882610abb565b9050919050565b610af0610aeb826108fe565b610acd565b82525050565b6000819050919050565b610b11610b0c8261059a565b610af6565b82525050565b6000610b238286610adf565b601482019150610b338285610b00565b602082019150610b438284610b00565b602082019150819050949350505050565b7f5472616e73616374696f6e20686173682063616e6e6f7420626520656d70747960008201527f2100000000000000000000000000000000000000000000000000000000000000602082015250565b6000610bb060218361075d565b9150610bbb82610b54565b604082019050919050565b60006020820190508181036000830152610bdf81610ba3565b9050919050565b7f457363726f772077697468207472616e73616374696f6e206861736820646f6560008201527f736e27742065786973742e000000000000000000000000000000000000000000602082015250565b6000610c42602b8361075d565b9150610c4d82610be6565b604082019050919050565b60006020820190508181036000830152610c7181610c35565b9050919050565b6000604082019050610c8d6000830185610910565b610c9a602083018461091f565b9392505050565b7f457363726f772072657472696576616c206661696c6564210000000000000000600082015250565b6000610cd760188361075d565b9150610ce282610ca1565b602082019050919050565b60006020820190508181036000830152610d0681610cca565b905091905056fea2646970667358221220d630251a0ae0bf275157b3557cfd8eabbadb56ce4004c5da1d898e7c2ef5297564736f6c63430008090033",
  "linkReferences": {},
  "deployedLinkReferences": {}
}